:020000040000FA
:04100000ADEF14F04C
:06102A00EEEC0CF00F01DA
:10103000806A816A826A836A846A856A866A876A44
:10104000886A0F01926A936A946A956A966A976AA7
:10105000986A996A9A6A0F014B6B0F01D26A0F0165
:10106000D16A0F01C0980F01000EC26E0F01230E4E
:10107000C16E0F01C0880F01FF0EC16E0F01FF0E80
:10108000C26E0F01C0980F01776A0F019B9C0F0180
:1010900092809284928A928692820F01969A0F0190
:1010A000949E0F01939A939C93960F0195920F0132
:1010B000978C978A0F019A9E9A9C0F01998A998C16
:1010C000998E0F01958A9598959C959E0F01938214
:1010D00093840F014B6B0F01838E0F01C00E6D6E59
:1010E0000F016B6A0F01200E6C6E0001160ED76F98
:1010F000430ED86FAFEC0CF000011B0ED76F700ED3
:10110000D86FAFEC0CF000011C0ED76F7F0ED86FBC
:10111000AFEC0CF000011D0ED76F040ED86FAFECD2
:101120000CF000011E0ED76F7F0ED86FAFEC0CF0E5
:101130000001180ED76F040ED86FAFEC0CF00F0142
:10114000818C818A0F01849A0F01828EC06BC16BE2
:10115000C26BC36BC46BC56BC76BC86BC96BCA6B07
:10116000CB6BCC6BCE6BCF6BD06BD16BD26BD36BAD
:10117000D46BD56BD66BD76BD86BD96BDA6BDB6B5B
:10118000DC6BDD6BDE6BDF6BE06BF6EC0CF0120002
:10119000EEEC0CF00F01C0880F01FE0EC16E0F01C6
:1011A000C098010E0F01C26EC282C2B2D5EF08F024
:1011B0000F01C4500001C06F0F01D8900001C0336F
:1011C0000F01C290F6EC0CF01200EEEC0CF00F01E7
:1011D000C0880F01BF0EC26E0F01C098390E0F01FB
:1011E000C26E27EC0DF0C282C2B2F4EF08F00F011C
:1011F000C4500001C16F0F01D8900001A2080F0177
:10120000D8A019EF09F00F01D8900001C15184084E
:101210000F01D8B021EF09F00001840EC15D030D6C
:101220000F01F3500001C16F0F01C290F6EC0CF0FA
:1012300012000001640EC16F0F01C290F6EC0CF0B9
:1012400012000001000EC16F0F01C290F6EC0CF00D
:101250001200EEEC0CF00F01C0880F01DF0EC26E21
:101260000F01C098350E0F01C26E27EC0DF0C2823F
:10127000C2B238EF09F00F01C4500001C26F450E31
:101280000F01D8900001C25DC26F0F01D8A061EFBD
:1012900009F00001C251E16FD890C233D890C23337
:1012A000C25FC233800EC21BC235C233C235C233E5
:1012B000E151C227D890C2330F01C290F6EC0CF076
:1012C00012000001000EC26F0F01C290F6EC0CF08C
:1012D0001200EEEC0CF00F01C0880F017F0EC26E01
:1012E0000F01C0983D0E0F01C26E27EC0DF0C282B7
:1012F000C2B278EF09F00F01C4500001C36F0F01B3
:10130000C2900001C351D890C333D890C333C327D0
:10131000C333D890C333D890C333C327C333C32751
:10132000C333D890C333F6EC0CF01200EEEC0CF0A3
:101330000F01C0880F01FF0EC26E0F01C09800019F
:10134000C36B0F0187AEA7EF09F00001C32BF6ECCA
:101350000CF01200EEEC0CF00001C651D8B4DFEF37
:1013600009F00001C4510F01CB6E0001C491C441CA
:101370000F01B76E0F0181960F01CA84CA80CA821D
:101380000001C6510108D8A4CBEF09F00F013F0EB0
:10139000B66EE2EF09F00001C6510208D8A4E2EFF0
:1013A00009F00001C551D8B4E2EF09F00F013F0E7A
:1013B000B66E6EEC0DF00001C52FCBEF09F00F01FA
:1013C000000EB66EF6EC0CF01200EEEC0CF0000124
:1013D000C96B0001CB6B0001CA6B0001CC6B0F0124
:1013E00080B230EF0AF080B630EF0AF00F0185BC12
:1013F00030EF0AF085BA30EF0AF00F01888C30EC3C
:101400000DF00F0180A207EF0AF00001C92B0F01B8
:1014100080A60DEF0AF00001CB2B0F0185AC13EF76
:101420000AF00001CA2B0F0185AA19EF0AF000018A
:10143000CC2B0F01889C49EC0DF00F0180B230EFEE
:101440000AF080B630EF0AF00F0185BC30EF0AF0E9
:1014500085BA30EF0AF00001DB83F6EC0CF01200E5
:1014600049EC0DF00001DB93C96BCB6BCA6BCC6B05
:10147000F6EC0CF01200EEEC0CF00001C96B000170
:10148000CB6B0001CA6B0001CC6B0001CDA167EFF3
:101490000AF00F0180B222EF0BF00F01888C30ECC4
:1014A0000DF00F01C0880F01FD0EC16E0F01C09835
:1014B000050E0F01C26EC282C2B25CEF0AF00F01CC
:1014C000C4500001C96F0F01889C49EC0DF0000168
:1014D000CDA389EF0AF00F0180B622EF0BF00F01C8
:1014E000888C30EC0DF00F01C0880F01F70EC16E33
:1014F0000F01C0980D0E0F01C26EC282C2B27EEF04
:101500000AF00F01C4500001CB6F0F01889C49EC19
:101510000DF00001CDA5ABEF0AF00F0185BC22EF65
:101520000BF00F01888C30EC0DF00F01C0880F011B
:10153000F70EC26E0F01C0982D0E0F01C26EC2824F
:10154000C2B2A0EF0AF00F01C4500001CA6F0F0130
:10155000889C49EC0DF00001CDA7CDEF0AF00F01FA
:1015600085BA22EF0BF00F01888C30EC0DF00F01E3
:10157000C0880F01FB0EC26E0F01C098290E0F012B
:10158000C26EC282C2B2C2EF0AF00F01C4500001A3
:10159000CC6F0F01889C49EC0DF049EC0DF00F0168
:1015A000C0880F01FF0EC16E0F01C098DB830001E0
:1015B000C951D890C933D890C933C927C933D890F5
:1015C000C933D890C933C927C933C927C933D8907B
:1015D000C9330001CA51D890CA33D890CA33CA2738
:1015E000CA33D890CA33D890CA33CA27CA33CA2755
:1015F000CA33D890CA330001CB51D890CB33D8909E
:10160000CB33CB27CB33D890CB33D890CB33CB272E
:10161000CB33CB27CB33D890CB330001CC51D890F0
:10162000CC33D890CC33CC27CC33D890CC33D89093
:10163000CC33CC27CC33CC27CC33D890CC33F6EC7E
:101640000CF0120049EC0DF0DB93C96BCB6BCA6B4D
:10165000CC6BF6EC0CF01200EEEC0CF00001D26B4F
:101660000001D36B0001D46B0001160ED76F050E7D
:10167000D86FAFEC0CF00001D66B0001D56B000108
:10168000D62B0F01D8B44BEF0BF00F0181A23FEF27
:101690000BF055EF0BF00001D52BFF0ED55D0F01C0
:1016A000D8B07FEF0BF045EF0BF00001060ED76FBF
:1016B000C1EC0CF00001D951800A0001D26F000189
:1016C000070ED76FC1EC0CF00001D951800A000160
:1016D000D36F0001080ED76FC1EC0CF00001D95197
:1016E000800A0001D46F0001160ED76F430ED86F29
:1016F000AFEC0CF00001DB83F6EC0CF01200000103
:10170000160ED76F430ED86FAFEC0CF00001DB93D1
:10171000F6EC0CF01200EEEC0CF00001DA6B0001BC
:10172000D66B0001D56B00010A0ED76FC1EC0CF02F
:101730000001D951030B0001DA6FDAB3DA9100012D
:10174000170ED76F030ED86FAFEC0CF00001170E19
:10175000D76F000ED86FAFEC0CF00001DB8305EC07
:101760000DF005EC0DF005EC0DF005EC0DF005ECC1
:101770000DF0F6EC0CF01200EEEC0CF00F01838291
:1017800039EC0DF00001C86BC76B0F0180A4CBEFE3
:101790000BF00001C82B0F0180AAD1EF0BF0000164
:1017A000C72B0F018392F6EC0CF01200EEEC0CF05C
:1017B0000F01C0880F01FB0EC16E0F01C098090E0A
:1017C0000F01C26E0F01838239EC0DF00F01C2824E
:1017D000C2B2E8EF0BF00F01C4500001C86F0F0157
:1017E000110EC26E27EC0DF00F01C282C2B2F6EFED
:1017F0000BF00F01C4500001C76F0F0183920F015E
:10180000C0880F01FF0EC16E0F01C0980001C751C3
:10181000D890C733D890C733C727C733D890C733BA
:10182000D890C733C727C733C727C733D890C73324
:101830000001C851D890C833D890C833C827C833DE
:10184000D890C833D890C833C827C833C827C833FE
:10185000D890C833F6EC0CF01200EEEC0CF00F014F
:10186000848AF6EC0CF01200EEEC0CF00F01849A76
:10187000F6EC0CF01200EEEC0CF00F01848A05EC93
:101880000DF0849A05EC0DF0F6EC0CF01200EEEC85
:101890000CF00F01829EF6EC0CF01200EEEC0CF056
:1018A0000F01828EF6EC0CF01200EEEC0CF00F0142
:1018B000829E05EC0DF0828E05EC0DF0F6EC0CF03E
:1018C0001200EEEC0CF00F01819AF6EC0CF0120015
:1018D000EEEC0CF00F01818AF6EC0CF01200EEEC4D
:1018E0000CF00F01819A05EC0DF0818A05EC0DF0EA
:1018F000F6EC0CF01200EEEC0CF00F01819CF6EC13
:101900000CF01200EEEC0CF00F01818CF6EC0CF0F8
:101910001200EEEC0CF00F01819C05EC0DF0818CB7
:1019200005EC0DF0F6EC0CF01200EEEC0CF00F01F3
:10193000888EF6EC0CF01200EEEC0CF00F01889E95
:10194000F6EC0CF01200EEEC0CF00F01889E05ECAA
:101950000DF0888E05EC0DF0F6EC0CF012000F0186
:10196000839E39EC0DF00001D7350001CE6FCE8F8C
:101970000001D8510001CF6FD5EC0CF00F01838E20
:1019800012000F01839E39EC0DF00001D7350001E4
:10199000CE6FCE9F000E0001CF6FD5EC0CF0D15171
:1019A0000001D96F0F01838E12000001CE510F018B
:1019B0006F6E0F016DA0DAEF0CF00F016F50000198
:1019C000D06F0001CF510F016F6E0F016DA0E6EFD8
:1019D0000CF00F016F500001D16F12000F01F25097
:1019E0000001DE6F0F01F29E000112000001DE51C6
:1019F000DEBFFDEF0CF001EF0DF00F01F28E0001E4
:101A000012000F01F29E0001120000010E0EDF6FA6
:101A1000280EE06FDF2F0EEF0DF0E02F0AEF0DF034
:101A200012EF0DF00000120000010E0EDF6F280E05
:101A3000E06FDF2F1DEF0DF0E02F19EF0DF021EF1C
:101A40000DF000000001DC4F120014EF0DF000015A
:101A50001F0EDF6FDF2F2AEF0DF02FEF0DF01200BA
:101A60000001260EDF6FDF2F33EF0DF038EF0DF0A2
:101A700012000001B20EDF6F010EE06FDF2F42EFA8
:101A80000DF0E02F3EEF0DF046EF0DF000000001ED
:101A900012000001A60EDF6FDF2F4CEF0DF01200D9
:101AA0000001140EDF6FDF2F53EF0DF01200000165
:101AB000080EDF6FDF2F5AEF0DF00000120000015B
:101AC0002A0EDF6F020EE06FDF2F68EF0DF0E02FC0
:101AD00064EF0DF06CEF0DF00000120000011F0E1E
:101AE000DF6F4F0EE06FDF2F77EF0DF0E02F73EF1A
:101AF0000DF07BEF0DF0000012000F019488949A16
:101B0000949699980F01979493800F01C00EC76E19
:101B10000F01C56A0F01200EC66E12000F01F29E62
:101B20000F01F19C0F0181800F01F288F28E0001FC
:101B300012000F018594818087987CEC10F00001E1
:101B40000A6A00010B6A0F0187980001100E036EEC
:101B5000FF0E046EAFEC0FF00A0E036EFF0E046E64
:101B6000AFEC0FF00B0E036E0D50046EAFEC0FF0E8
:101B70000C0E036E000E046E99EC0FF0010E036E56
:101B8000070E046E99EC0FF0020E036E070E046E42
:101B900099EC0FF0030E036E030E046E99EC0FF038
:101BA000040E036E0A0E046E99EC0FF0060E036E1F
:101BB0000F0E046E99EC0FF0070E036E700E046E9C
:101BC00099EC0FF0110E036E010E046E99EC0FF0FC
:101BD000120E036E0A0E046E99EC0FF0130E036ED4
:101BE0000A0E046E99EC0FF0050E036E0C507F0B7D
:101BF000046E99EC0FF0050E036E6BEC0FF0089C71
:101C000004500C5C0F01D8A408EF0EF00001088C02
:101C100084EC10F0000112007CEC10F00001086A66
:101C20000F0187980001000E036E0F0E046E99ECF1
:101C30000FF00001000E036E6BEC0FF0000108982E
:101C400004500F080F01D8A428EF0EF000010888F7
:101C5000A8EC10F00F018788B7EC10F084EC10F0BE
:101C6000000112007CEC10F00F018798000E0001BB
:101C7000036E0C0E046E99EC0FF0000E0001036E63
:101C80006BEC0FF00001089A04500C080F01D8A467
:101C90004CEF0EF00001088A84EC10F000011200F5
:101CA0000F0187980001070E036E700E046E99EC09
:101CB0000FF0020E036E010E046E99EC0FF0100E81
:101CC000036E0E50046EAFEC0FF00A0E036E0E5052
:101CD000046EAFEC0FF00B0E036E80EC0FF00450AF
:101CE000096E03EC10F07CEC10F0000E036E0E0E8B
:101CF000046E99EC0FF00F018788C0EC10F00F0113
:101D000087980001066A056A0001062A0F01D8B407
:101D100090EF0EF00F0181B084EF0EF09AEF0EF00D
:101D20000001052A040E055C0F01D8B0C1EF0EF0CA
:101D30008AEF0EF000010880070E036E700E046E2D
:101D400099EC0FF002B8C6EF0EF002BACAEF0EF02F
:101D500008923AEC10F0020E036E070E046E99EC36
:101D60000FF0000E036E0F0E046E99EC0FF00F01D2
:101D70008788B7EC10F00F01F29284EC10F00001AC
:101D80001200000108900892A9EF0EF000010892DD
:101D9000A9EF0EF000010882A9EF0EF07CEC10F024
:101DA0000F0181A0E6EF0EF00001170E036E6BEC41
:101DB0000FF004B0089604A0088608B6F1EF0EF004
:101DC0000894089684EC10F000011200089408961C
:101DD000070E036E6BEC0FF00450026E02ACF7EFCF
:101DE0000EF0CEEC0FF00950176E0CEF0FF0070E4F
:101DF000036E700E046E99EC0FF0170E036E6BEC11
:101E00000FF004B0089604A0088608940F01F2921F
:101E100084EC10F000011200070E036E700E046EC9
:101E200099EC0FF0170E036E6BEC0FF004B00896F0
:101E300004A0088608840F01F29284EC10F00001DF
:101E400012000F01F2B235EF0FF00001170E036E12
:101E50006BEC0FF004B0089604A0088608B643EFB8
:101E60000FF00894089600011200089408960F01DC
:101E7000F2920001070E036E6BEC0FF00450026E3D
:101E800002AC49EF0FF0CEEC0FF00950176E5AEF8D
:101E90000FF0070E036E700E046E99EC0FF0170E24
:101EA000036E6BEC0FF004B0089604A0088608944B
:101EB00000011200070E036E700E046E99EC0FF015
:101EC000170E036E6BEC0FF004B0089604A00886A2
:101ED000088400011200000E000103240001016EBD
:101EE0000F0185946EEC10F000010050026E6EEC54
:101EF00010F000010050046E0F01858400011200F3
:101F0000000E00010324016E0F0185946EEC10F0A9
:101F10000050026E6EEC10F00050046E6EEC10F08B
:101F20006EEC10F06EEC10F06EEC10F00F0185848A
:101F30001200200E000103240001016E0F018594A0
:101F40006EEC10F000010050026E00010450000120
:101F5000016E6EEC10F00F01858400011200200E5E
:101F6000000103240001016E0F0185946EEC10F056
:101F700000010050026E0450016E6EEC10F0C20EB3
:101F80000001016E6EEC10F06EEC10F06EEC10F0D3
:101F90006EEC10F00F018584000112000001610E4B
:101FA000016E0F0185946EEC10F00050026E6EEC25
:101FB00010F000500B6E6EEC10F00050096E6EECDD
:101FC00010F00050186E6EEC10F00050196E6EECB0
:101FD00010F000501A6E6EEC10F000501B6E6EEC9C
:101FE00010F000501C6E6EEC10F000501D6E6EEC88
:101FF00010F000501E6E6EEC10F000501F6E0F01BE
:102000008584000112000001A00E016E0F0185946D
:1020100000016EEC10F00050026E0A2A0A50016EA8
:102020006EEC10F00950016E6EEC10F00F50016E66
:102030006EEC10F01050016E6EEC10F01150016E4D
:102040006EEC10F01250016E6EEC10F01350016E39
:102050006EEC10F01450016E6EEC10F01550016E25
:102060006EEC10F01650016E6EEC10F00F018584CE
:1020700000011200E10E0001016E0F0185946EEC6B
:1020800010F00050026E0F01858400011200E20E74
:102090000001016E0F0185946EEC10F00050026E8D
:1020A0000F01858400011200E30E0001016E0F0193
:1020B00085946EEC10F00050026E0F0185840001D3
:1020C0001200FF0E0001016E0F0185946EEC10F0FE
:1020D0000050026E0F0185840001120000010150C2
:1020E0000F01C96E0F01C7A073EF10F00F01C950A7
:1020F0000001006E000112000F01F2500001076E96
:102100000F01F29E000112000001075007BE8BEF85
:1021100010F08FEF10F00F01F28E000112000F018E
:10212000F29E0001120000010E0E206E480E216E7C
:10213000F70E226E0000222E9AEF10F0212E98EF5B
:1021400010F0202E96EF10F0A6EF10F00000120015
:102150000001F90E206E0000AEEF10F0B0EF10F0AD
:10216000202EABEF10F0B5EF10F0000012000001D0
:10217000240E206E0000202EBAEF10F00000120096
:102180000001020E206E0000202EC3EF10F0C9EFF8
:1021900010F012000EEC13F00F01968296800F01E2
:1021A000968E0F01849284900001246A256A266A23
:1021B000276A286A296A2A6A2B6A2C6A2D6A2E6A7B
:1021C0002F6A306A316A326A336A346A356A366A2B
:1021D000376A17EF13F00EEC13F024509B0F650FC6
:1021E0000F01D8B0F8EF10F00001238217EF13F0C1
:1021F0000001000E2D6E0F01D890000128A403EFFE
:1022000011F00F01D88000012D360F01D890000188
:102210002D362D50316E0F01D890000128A013EFFC
:1022200011F00F01D88000012434326E2550336E36
:10223000B5EC12F0E1EC13F00F01D8B417EF13F086
:102240000001239017EF13F00EEC13F024509B0FB6
:10225000650F0F01D8B031EF11F00001238217EFA5
:1022600013F00001010E2D6E0F01D890000128A47B
:102270003CEF11F00F01D88000012D360F01D890EE
:10228000000128A246EF11F00F01D88000012D3681
:102290002D50316E0F01D890000128A052EF11F09F
:1022A0000F01D88000012434326E2550336EB5EC16
:1022B00012F0E1EC13F00F01D8B417EF13F00001A6
:1022C000239017EF13F00EEC13F024509B0F650FC3
:1022D0000F01D8B070EF11F00001238217EF13F057
:1022E000000128B47FEF11F025509B0F650F0F01FF
:1022F000D8B07FEF11F00001238217EF13F0000137
:10230000020E2D6E0F01D890000128A48AEF11F063
:102310000F01D88000012D360F01D890000128A2AE
:1023200094EF11F00F01D88000012D362D50316E41
:102330000F01D890000128A0A0EF11F00F01D88064
:1023400000012434326E2650336E2550346EDDEC9D
:1023500012F0E1EC13F00F01D8B417EF13F0000105
:10236000239017EF13F00EEC13F024509B0F650F22
:102370000F01D8B0C0EF11F00001238217EF13F066
:1023800000012750245C9B0F650F0F01D8B0CDEFE3
:1023900011F00001238217EF13F0000127502424CD
:1023A0009B0F650F0F01D8B0DAEF11F00001238207
:1023B00017EF13F02392030E2D6E0F01D89000013A
:1023C00028A4E5EF11F00F01D88000012D360F0190
:1023D000D890000128A2EFEF11F00F01D880000182
:1023E0002D362D50316E0F01D890000128A0FBEF43
:1023F00011F00F01D88000012434326E2750336E63
:102400002550346EDDEC12F0E1EC13F00F01D8B47E
:1024100017EF13F00001239017EF13F00EEC13F0F9
:10242000040E2D6E0F01D89000012D360F01D880BB
:1024300000012D362D50316E9EEC12F0E1EC13F0C0
:102440000F01D8B417EF13F00001239017EF13F02A
:102450000EEC13F02950F009296E2950316E9EECD4
:1024600012F0E1EC13F00F01D8B417EF13F00001F4
:10247000239017EF13F00EEC13F000012A8E2A5070
:10248000316E9EEC12F0E1EC13F00F01D8A417EFBF
:1024900013F0D3EC13F0110E31EC13F02EBA4BEF16
:1024A00012F023A0B4EF12F02E809AEC13F0C3ECDC
:1024B00013F035502C6E9AEC13F0CBEC13F0355032
:1024C0002B6EE1EC13F02A508608D8A417EF13F016
:1024D0002B50396E2C50386ED8902B322C322C2643
:1024E0003950D8B0393C2B262B322C32D8902B3295
:1024F0002C32D8902B322C3238502C263950D8B070
:10250000393C2B262B322C3238502C263950D8B05F
:10251000393C2B262C380F0B2C6E2B382B6EF00BE6
:102520002B1A2C12D8B02B882B50D8B417EF13F0DD
:1025300017EF13F084AE9AEF12F01200D3EC13F001
:10254000100E31EC13F02EBA9EEF12F023A0B4EF70
:1025500012F00001315031EC13F02EBA9EEF12F060
:1025600023A0B4EF12F0000C010CD3EC13F0100E0A
:1025700031EC13F02EBAB5EF12F023A0DCEF12F01D
:10258000315031EC13F02EBAB5EF12F023A0DCEF8E
:1025900012F0325031EC13F02EBAB5EF12F023A046
:1025A000DCEF12F0335031EC13F02EBAB5EF12F02D
:1025B00023A0DCEF12F0000C010CD3EC13F0100E92
:1025C00031EC13F02EBADDEF12F023A00DEF13F073
:1025D000315031EC13F02EBADDEF12F023A00DEFE5
:1025E00013F0325031EC13F02EBADDEF12F023A0CD
:1025F0000DEF13F0335031EC13F02EBADDEF12F083
:1026000023A00DEF13F0345031EC13F02EBADDEFB0
:1026100012F023A00DEF13F0000C010C00012E6A44
:102620001AEC13F00001236A0A0E2F6E120022EC3E
:1026300013F012000F01F2500001306E0F01F29EF4
:10264000000112000001305030BE29EF13F02DEFD1
:1026500013F00F01F28E000112000F01F29E000133
:1026600012000001366E61EC13F04DEC13F0FF0A1E
:102670000F01D8A440EF13F0000123802E9A12001E
:102680000001E1EC13F02F2E4AEF13F02E9A000117
:10269000239012002E8A000112000F0196820F0172
:1026A00096800F0184A25BEF13F00F0196920F0149
:1026B00096900001000C0F0196920F019690000178
:1026C000FF0C0001080E376E0F01D890000136365E
:1026D0000F01D8A06EEF13F082EF13F00F01849278
:1026E00096920F019680000000000000000000009C
:1026F00000009690000000000000000000000000B4
:1027000094EF13F00F019682968000000000000005
:102710000000000000009690000000000000000093
:102720000000000094EF13F00001372E64EF13F067
:102730000001000C0001356A080E376EEDEC13F055
:10274000F6EC13F00F0184A0A2EF13F00F0184A2A6
:10275000ACEF13F0B2EF13F00F01D8900001353653
:10276000B9EF13F00F01D89000013536352AB9EFD3
:1027700013F0FAEC13F00001372EA0EF13F0F1EC98
:1027800013F00001000CF1EC13F0E7EC13F0EDECAA
:1027900013F00001000CEDEC13F0E7EC13F0EDEC9E
:1027A00013F00001000C0F018250FC0B826EEDEC67
:1027B00013F0F6EC13F0F1EC13F0FAEC13F0000167
:1027C00012000F0196800F019682000112000F0186
:1027D00096800F0196900001000C0F019682000177
:1027E000000C0F01849296920001000C0F0196805C
:1027F0000001000C0F01849096900001000C0F0165
:102800009488949A94960F0197940F01C00EC76E06
:102810000F01C56A0F01200EC66E0001400E3A6E10
:10282000000E3B6EC00E3C6E78EC14F00001400EC2
:102830003A6E0A0E3B6E000E3C6E78EC14F01200FD
:102840000001010E3D6E040E416E9EEC14F0400E30
:102850003A6E0A0E3B6E020E3C6E78EC14F09EEC63
:1028600014F0400E3A6E0A0E3B6E220E3C6E78EC6F
:1028700014F0412E25EF14F012000001000E3D6E01
:10288000400E3A6E0A0E3B6E000E3C6E78EC14F071
:10289000120000013E500108CC0ED8B466EF14F0CF
:1028A00000013E500208D40ED8B466EF14F00001C7
:1028B0003E500308D80ED8B466EF14F000013E5025
:1028C0000408DC0ED8B466EF14F012003C6E400E23
:1028D0003A6E000E3B6E78EC14F0000E3DB0220E06
:1028E0003C6E400E3A6E0A0E3B6E78EC14F012000D
:1028F0000F01858400013A500001016E6EEC10F06A
:1029000000013B500001016E6EEC10F000013C50E4
:102910000001016E6EEC10F00F01859400011200B1
:10292000000101500F01C96E0F01C7A095EF14F00F
:102930000F01C9500001006E0001120000010E0ECF
:102940003F6E280E406E3F2EA7EF14F0402EA3EFEF
:1029500014F0ABEF14F00000120015EC08F0CAEC14
:1029600010F0000E7E6F000E7D6F000E7C6F7DEC10
:102970000DF0000E0D6E000E0C6E99EC0DF008AC13
:10298000F2EF14F00CEC0EF008A8F2EF14F02CECBF
:102990000BF0D3517E6F2CEC0BF0D2517D6F010EFA
:1029A0000E6E7E510F6E7D51106E000E116E000E78
:1029B000126E000E136E000E146E000E156E000ED9
:1029C000166E50EC0EF008A0E9EF14F008A2E9EF43
:1029D00014F00001140EDC6F14EC0DF0C7EF14F0CE
:0829E000E9EF14F0F2EF14F02E
:00000001FF
